:020000040800F2
:10000000F82F002001010008090100080B01000879
:100010000D0100080F010008110100080000000098
:1000200000000000000000000000000013010008B4
:10003000150100080000000017010008811B0008DE
:100040001B0100081B0100081B0100081B01000820
:100050001B0100081B0100081B0100081B01000810
:100060001B0100081B0100081B0100081B01000800
:100070001B0100081B0100081B0100081B010008F0
:100080001B0100081B0100081B0100081B010008E0
:100090001B0100081B0100081B0100081B010008D0
:1000A0001B0100081B0100081B0100081B010008C0
:1000B000291C00081B0100081B0100081B01000887
:1000C0001B0100081B0100081B0100081B010008A0
:1000D0001B010008F51E00081B0100081B01000899
:1000E0001B0100081B0100081B010008DFF80CD0F1
:1000F00000F0DEFA004800471D290008F82F002014
:100100000648804706480047FEE7FEE7FEE7FEE7B1
:10011000FEE7FEE7FEE7FEE7FEE7FEE7E11B00087D
:10012000ED000008202A04DB203A21FA02F0002129
:10013000704721FA02F3D040C2F1200291400843F7
:10014000194670472DE9FE4F804681EA0300C00F33
:100150000C46009021F0004123F00045B8EB02006E
:10016000A94105D24046214690461C460B46024610
:1001700023F00040104347D0270DC7F30A00C3F314
:100180000A510290401A019040286BDAC3F3130021
:1001900040F4801B0098924620B10023D2EB030A62
:1001A00063EB0B0B01985946C0F14002504600F03A
:1001B00076F906460D4650465946019A00F07EF9FA
:1001C00010EB08006141002487EA115284EAE773CA
:1001D0001A4340D0009A62B3019A012A4FEA0752AB
:1001E00015DC001B61EB02014FF0004202EA0752EE
:1001F000CDE90042001C41F5801132462B4600F04B
:100200007EF903B0BDE8F08F40462146F9E7001BB8
:1002100061EB0201001C41F5801300185B412018BE
:10022000A2F5001747EB030140EAD570B6196D41FE
:1002300011E06D084FEA360645EAC0754FEA0752ED
:10024000001B61EB0201001C41F5801149084FEAD7
:1002500030000019514132462B4603B0BDE8F04F43
:1002600000F03EB90098012240000023D0EB0202CA
:1002700063EBE073009821464FEAE074B8EB0000AE
:1002800061EB0401E9E783F000435BE781F00041A3
:1002900058E72DE9F04D81EA030404F0004B21F00A
:1002A000004514464FF0000A23F0004150EA0502D1
:1002B00020D054EA01021DD0C5F30A570246C5F307
:1002C0001303C1F31300C1F30A5640F4801543F43D
:1002D0008013A7EB0608101BD64608F2FD3873EB17
:1002E000050002D308F1010801E092185B41B8F162
:1002F000000F03DA00200146BDE8F08D00204FF426
:100300008011064684460EE0171B73EB050705D3E4
:10031000121B63EB050306434CEA010C49084FEA44
:10032000300092185B4150EA0107EDD152EA030018
:1003300012D082EA040083EA0501084305D0101BAD
:10034000AB4106D20122002306E000224FF0004319
:1003500002E06FF0010253101AEB06004CEB08515B
:1003600010EB0A0041EB0B01BDE8F04D00F0B8B80E
:100370000EB5C10F80EAE0700844CA07002140F2C0
:1003800033438DE80E000A460B4600F0B8F803B080
:1003900000BD0EB540F2334102910021CDE90011BC
:1003A0000A460B4600F0ABF803B000BDC1F30A5299
:1003B00010B5C1F3130140F2FF3341F480119A42AA
:1003C00001DA002010BD40F233439A42A2F23342D8
:1003D00003DC5242FFF7A6FE10BD904010BD0000A6
:1003E00030B5041E71F1000404DB4FF000444042BC
:1003F00064EB0101141E73F1000405DB1C464FF091
:100400000043524263EB0403994208BF904230BD5F
:1004100030B50B46014600202022012409E021FAD4
:1004200002F59D4205D303FA02F5491B04FA02F5D1
:100430002844151EA2F10102F1DC30BD2DE9F05F68
:100440000546002092469B46884606468146402443
:100450001BE02846414647462246FFF763FE5346C7
:100460005A46C01A914110D311461846224600F050
:1004700016F82D1A67EB01084F462246012000218D
:1004800000F00DF817EB00094E41201EA4F1010405
:10049000DFDC484631462A464346BDE8F09F202A25
:1004A00004DB203A00FA02F1002070479140C2F1CB
:1004B000200320FA03F3194390407047202A06DBFB
:1004C000CB17203A41FA02F043EAE07306E041FA22
:1004D00002F3D040C2F12002914008431946704710
:1004E00010B5141E73F1000408DA401C41F100013C
:1004F00092185B411A4301D120F0010010BD2DE993
:10050000F04D92469B4611B1B1FA81F202E0B0FA89
:1005100080F220329046FFF7C2FF04460F4640EAC1
:100520000A0041EA0B0153465A46084313D01146CC
:1005300053EA010019D0C8F140025046FFF7F2FD1E
:1005400005460E46504659464246FFF7A8FF084367
:1005500005D0012004E020463946BDE8F08D00209A
:10056000054346EAE0762C4337430A986305E40ADC
:10057000A0EB08000022FD0A44EA47540A3002D5E5
:1005800000200146E9E7010510196941DDE9084548
:1005900000196941BDE8F04DA2E72DE9FE4F81EA5F
:1005A000030404F0004421F0004100944FF0000BDC
:1005B00023F0004350EA01045ED052EA03045BD00A
:1005C000C3F30A54C1F30A552C44A4F2F334019442
:1005D000A0FB0254C1F3130141F48011C3F31303D0
:1005E00043F4801301FB024400FB034E840A970A84
:1005F00044EA815447EA8357A4FB076802958D0AB1
:1006000005FB07854FEA932C04FB0C542705029D3C
:100610004FEA065847EA1637B5EB08056EEB070CAC
:10062000870E920E47EA811742EA8312A7FB020166
:10063000B6EB0B0164EB00042B0D43EA0C335E18A0
:1006400044EB1C50DA465146E7FB0201C5F31304A4
:100650004FEA0B3343EA14534FEA0432019C43EA56
:100660000603A4F10C040294009CCDE900B4FFF74A
:1006700046FF03B0BDE8F08F00200146F9E7C1F363
:100680000A52C1F3130140F2FF3341F480119A4240
:1006900002DA00200146704740F233439A42A2F248
:1006A000334202DC5242FFF73DBDFFF7F8BE0000C7
:1006B000064C074D06E0E06840F0010394E80700AF
:1006C00098471034AC42F6D3FFF714FDC830000849
:1006D000E830000831B500F0E7F8044600F0E4F82F
:1006E0000099001B8842F9D338BD00002DE9F84F6E
:1006F000DFF890A100220AF1040B144601274FF005
:100700000F090BF1040E00BF0B6807FA04F52B402C
:10071000AB4274D1DFF870C14E68A6EB0C08664599
:100720002BD00DDC032E34D005DC36B3012E19D0CE
:10073000022E2FD11BE0112E16D0122E2AD119E035
:10074000B8F5881F19D006DCB8F5803F15D0B8F58C
:10075000801F1FD111E0B8F5001F0ED0B8F5041F9F
:1007600018D10AE0CA6815E0CA68121D12E0CA680A
:1007700008320FE0CA680C320CE08A682AB1012AFC
:100780004FF0080203D0456104E0042202E0056155
:1007900000E00022FF2B01D8064601E000F104062C
:1007A0004FEA840501D9A5F12005D6F800C009FA61
:1007B00005F82CEA080C02FA05F54CEA050CC6F817
:1007C00000C04D68ED0057D5304DAE6946F00106CA
:1007D000AE61AD6924F0030605F0010500952C4DCE
:1007E00006EB050CDCF80850A6074FEA167809FA64
:1007F00008F6B543274EB04202D1002610E03BE098
:10080000254EB04201D101260AE0244EB04201D16A
:10081000022605E0224EB04201D1032600E0042664
:1008200006FA08F62E43CCF808604D68DAF8006046
:10083000ED03554601D51E4300E09E432E604D68F2
:10084000DBF80060AD035D4601D51E4300E09E432A
:100850002E604D68DEF80060ED02754601D51E433E
:1008600000E09E432E604D68AD020E4D2E6801D50E
:100870001E4300E09E432E60641C102CFFF444AF26
:10088000BDE8F88F00040140000011100010024084
:100890000000014000080140000C01400010014030
:1008A000001401400C04014001480068704700003A
:1008B0000000002002480168491C016070470000E8
:1008C00000000020074810B5016841F010010160E8
:1008D000032000F065F8002000F006F800F016F89C
:1008E000002010BD0020024010B5044600F0AEF913
:1008F0004FF47A71B0FBF1F000F0A4FD0022214624
:10090000501E00F02DF8002010BD00000C4808B566
:10091000816941F001018161806900F0010000906E
:10092000032000F03DF800221146501E00F018F898
:100930000448416821F0E06141F00071416008BD68
:10094000001002400000014000F01F020121914010
:100950004009800000F1E020C0F80011704700005D
:10096000F0B40E4B1B680C46C3F30223C3F107051A
:10097000042D00D90425191D072901D2002300E008
:10098000DB1E012606FA05F1491E214099409E40D2
:10099000761E16403143F0BC01F0E2B80CED00E0E9
:1009A000064900F0070208684FF6FF03184040EAC6
:1009B0000220034A10430860704700000CED00E07D
:1009C0000000FA052DE9F047DFF8789205460E465B
:1009D000D9F80000022300F0070701204104420675
:1009E000994C41F28838B74271D2D9F800C02CF046
:1009F000070C4CEA060CC9F800C0D9F8007007F0E3
:100A00000707B7426FD12E78B60705D56668AF687D
:100A100026F0F0063E4366602E78F60756D06E68E4
:100A2000012E0BD0022E1ED093FAA3F1B1FA81F160
:100A300041F02001490924D0216823E091FAA1F274
:100A4000B2FA82F242F02002520901D0226800E09C
:100A5000626A91FAA1F1B1FA81F101F01F018840B7
:100A6000024240D017E092FAA2F1B1FA81F141F0CE
:100A70002001490901D0216800E0616A92FAA2F2DE
:100A800002E0616A93FAA3F2B2FA82F202F01F0264
:100A90009040014227D0606820F00300304360603E
:100AA000FFF702FF06466868012809D0022847467A
:100AB00013D01EE0FFF7F8FE801BB84201D992E088
:100AC00047466068C0F381000128F3D1A1E015E03A
:100AD000FFF7EAFE801BB84273D86068C0F381005C
:100AE0000228F5D195E092E0FFF7DEFE801BB842C8
:100AF00079D8606810F00C0FF6D18AE02F78BF0724
:100B000007D56768D5F808C027F0F00747EA0C0753
:100B100067602F78FF076DD06F68012F0BD0022F11
:100B20001ED093FAA3F1B1FA81F141F020014909F5
:100B300024D0216823E091FAA1F2B2FA82F242F0C5
:100B40002002520901D0226800E0626A91FAA1F104
:100B5000B1FA81F101F01F018840024257D017E03D
:100B600092FAA2F1B1FA81F141F02001490901D0D4
:100B7000216800E0616A92FAA2F202E0616A93FAE7
:100B8000A3F2B2FA82F202F01F02904001423ED07C
:100B9000606820F0030038436060FFF785FE074679
:100BA0006868012807D0022811D01FE0FFF77CFEFB
:100BB000C11B414517D86068C0F381000128F5D1F9
:100BC00018E010E0FFF770FEC11B41450BD86068CC
:100BD000C0F381000228F5D10CE000BFFFF764FEEE
:100BE000C11B414502D90320BDE8F087606810F0C1
:100BF0000C0FF3D1D9F8001021F007013143C9F8E7
:100C00000010D9F8000000F00700B04201D0012028
:100C1000EAE72878400705D56068E96820F4E060D5
:100C2000084360602878000706D56068296920F4C9
:100C3000605040EAC10060600020FFF755FE0020D0
:100C4000D2E70000002002400010024010B500F082
:100C500043F808494968F02292FAA2F201F0F00143
:100C6000B2FA82F2D140044A515CC840034908609C
:100C700010BD000000100240A03000080400002059
:100C800010B5FFF7E3FF074949684FF4E06292FAB5
:100C9000A2F201F4E061B2FA82F2D140024A515C60
:100CA000C84010BD00100240A030000810B5FFF78A
:100CB000CDFF074949684FF4605292FAA2F201F45D
:100CC0006051B2FA82F2D140024A515CC84010BD74
:100CD00000100240A030000810B519A385B00FCB5A
:100CE0008DE80F001AA01B4B006804905A681A4840
:100CF00002F00C0104291DD008291BD14FF47014F7
:100D000094FAA4F402F47011B4FA84F4E140D2032A
:100D10001DF8011010D55A684FF4003393FAA3F36D
:100D200002F40032B3FA83F3DA4004AB9A5CB0FB0E
:100D3000F2F0484305B010BD08484843FAE7000008
:100D400002030405060708090A0B0C0D0E0F10100C
:100D5000010200000010024000127A0000093D006C
:100D60002DE9F84F05460078DFF85C95C0074FF095
:100D7000010429D0D9F804004E46C0F3810067046D
:100D8000012807D07068C0F3810002281DD1706867
:100D9000C0031AD597FAA7F0B0FA80F040F020000F
:100DA000400901D0306800E0706A97FAA7F1B1FA03
:100DB00081F101F01F0104FA01F1084204D06868D2
:100DC000012801D0052879D184E0306820F48030F2
:100DD0003060306820F480203060FFF765FD824687
:100DE00041F2883806E000BFFFF75EFDA0EB0A0184
:100DF00041457DD897FAA7F0B0FA80F040F0200086
:100E0000400901D0306800E0706A97FAA7F1B1FAA2
:100E100081F101F01F0104FA01F10842E4D13068C8
:100E200020F480303060686801280BD0052811D08C
:100E3000306820F480203060686858B3FFF734FDD4
:100E4000824611E0306820F480203060306840F441
:100E50008030F0E70520B070EEE700BFFFF724FD1B
:100E6000A0EB0A014145C4D897FAA7F0B0FA80F088
:100E700040F02000400901D0306800E0706A97FA25
:100E8000A7F1B1FA81F101F01F0104FA01F1084262
:100E9000E4D01FE0FFF708FD824605E0FFF704FD00
:100EA000A0EB0A014145A4D897FAA7F0B0FA80F068
:100EB00040F02000400902D0306801E0BAE0706ADA
:100EC00097FAA7F1B1FA81F101F01F0104FA01F1DB
:100ED0000842E3D12878FD4F80074FF0000A4FF019
:100EE000020634D5D9F80410484611F00C0F00E082
:100EF000B0E108D04168C846C1F38101022927D179
:100F00004168C90324D496FAA6F1B1FA81F141F0FF
:100F10002001490901D0016800E0416A96FAA6F271
:100F2000B2FA82F202F01F0204FA02F2114202D077
:100F3000296901297ED10168F82321F0F80293FA8A
:100F4000A3F36969B3FA83F399400A4302604FE05F
:100F5000286938B394FAA4F0B0FA80F047F820403A
:100F6000FFF7A2FC834605E0FFF79EFCA0EB0B0019
:100F7000642898D896FAA6F0B0FA80F040F02000E5
:100F80004009404601D0006800E0406A96FAA6F1A8
:100F9000B1FA81F101F01F0104FA01F10842E3D036
:100FA0004046C8E794FAA4F1B1FA81F147F821A0CC
:100FB000FFF77AFC834605E0FFF776FCA0EB0B0019
:100FC0006428D6D896FAA6F0B0FA80F040F0200057
:100FD0004009404601D0006800E0406A96FAA6F158
:100FE000B1FA81F101F01F0104FA01F10842E3D1E5
:100FF0002878000773D5A869D8B394FAA4F0B0FA9A
:1010000080F007EB8000C0F88044FFF74DFC80467D
:1010100006E000BFFFF748FCA0EB08006428A8D852
:1010200096FAA6F0B0FA80F040F06000B4EB501FE2
:1010300004D100E0D7E1D9F800000CE096FAA6F060
:10104000B0FA80F040F06000B6EB501F484601D186
:10105000006A00E0406A96FAA6F1B1FA81F101F067
:101060001F0204FA02F10842D4D00120FFF732FB3C
:1010700035E0FFE794FAA4F1B1FA81F107EB8101C1
:10108000C1F880A4FFF710FC804605E0FFF70CFCD8
:10109000A0EB0800642894D896FAA6F0B0FA80F085
:1010A00040F06000B4EB501F02D1D9F800000CE012
:1010B00096FAA6F0B0FA80F040F06000B6EB501F50
:1010C000484601D1006A00E0406A96FAA6F1B1FAFA
:1010D00081F101F01F0204FA02F10842D6D128780A
:1010E00040077DD5D9F81C1041F08051C9F81C107B
:1010F000D9F81C00DFF8D8B100F080500090DBF880
:10110000001041F48071CBF80010FFF7CDFB804652
:1011100006E000BFFFF7C8FBA0EB08006428BAD8C0
:10112000DBF80000C005F5D594FAA4F1B1FA81F11D
:1011300007EB8101C1F800A44FF0040B9BFAABF15F
:10114000B1FA81F107EB8101C1F800A4FFF7ACFB14
:10115000009007E0FFF7A8FB0099411A41F28830A0
:10116000814277D896FAA6F0B0FA80F040F04000BD
:10117000B4EB501F02D1D9F800000CE096FAA6F0AB
:10118000B0FA80F040F04000B6EB501F484601D165
:10119000006A00E0406A96FAA6F1B1FA81F101F026
:1011A0001F0104FA01F1A0460842D3D1E868E0B17A
:1011B000012850462AD094FAA4F1B1FA81F107EB44
:1011C0008101C1F800049BFAABF000BFB0FA80F0D7
:1011D00007EB8000C0F80044E868012821D000E057
:1011E00083E0FFF761FB834656E094FAA4F1B1FA7D
:1011F00081F107EB8101C1F800A49BFAABF1B1FAD0
:1012000081F107EB8101C1F800A4E5E79BFAABF19E
:10121000B1FA81F107EB8101C1F8000494FAA4F05E
:10122000D4E7FFF741FB834608E000BFFFF73CFB34
:10123000A0EB0B0141F2883081420BD896FAA6F060
:10124000B0FA80F040F04000B8EB501F03D1D9F85D
:1012500000000DE09DE096FAA6F0B0FA80F040F0B4
:101260004000B6EB501F484601D1006A00E0406ADA
:1012700096FAA6F1B1FA81F101F01F0208FA02F123
:101280000842D3D031E000BFFFF70EFBA0EB0B010B
:1012900041F2883081427CD896FAA6F0B0FA80F00C
:1012A00040F04000B8EB501F02D1D9F8000012E026
:1012B00096FAA6F0B0FA80F040F04000B6EB501F6E
:1012C000484607D1006A06E0001002400000424292
:1012D00000700040406A96FAA6F1B1FA81F101F07F
:1012E0001F0208FA02F10842CED1E869B0B3D9F87A
:1012F00004104E46C1F38101022974D002284FF038
:1013000080714FF0007950460AD091FAA1F1B1FAFC
:1013100081F147F82100FFF7C7FA07464D466BE019
:101320008A4691FAA1F1B1FA81F1BB4647F8210052
:10133000FFF7BAFA80464F4606E000BFFFF7B4FA5F
:10134000A0EB0800642854D897FAA7F0B0FA80F010
:1013500040F02000400902D0306801E061E0706A8E
:1013600097FAA7F1B1FA81F101F01F0104FA01F136
:101370000842E3D1286AB0F5803F05D17068A968BA
:1013800020F4003008437060D5E908010843716813
:1013900000E02EE021F47411084370609AFAAAF07C
:1013A000B0FA80F04BF82040FFF77EFA054604E0E3
:1013B000FFF77AFA401B64281BD897FAA7F0B0FA17
:1013C00080F040F02000400901D0306800E0706AF1
:1013D00097FAA7F1B1FA81F101F01F0104FA01F1C6
:1013E0000842E5D01DE01EE0FFF75EFAC01B64284E
:1013F00002D90320BDE8F88F95FAA5F0B0FA80F085
:1014000040F02000400901D0306800E0706A95FA91
:10141000A5F1B1FA81F101F01F0104FA01F10842CE
:10142000E2D10020E6E70120E4E74FF0E0210428C4
:10143000086903D020F004000861704740F0040000
:10144000FAE7704710B5401EB0F1807F01D301204C
:1014500010BD4FF0E02460610F21601700F080FBA9
:101460000020A06107202061002010BD10B5FFF70B
:10147000E8FF10BD7047704730B590F83820012A5A
:1014800020D0012280F83820022380F83930036808
:101490005C6824F070045C6003685C680D682C4331
:1014A0005C6003689C6824F080049C6003689C680E
:1014B00049680C439C6080F83920002180F838107E
:1014C000084630BD022030BD10B5040003D094F8AA
:1014D000390010B107E0012010BD002084F8380069
:1014E000204600F00DF8022084F83900211D206804
:1014F00000F0A0FB012084F83900002010BD00009E
:1015000008B50068B0F1804F12D10A48C16941F0B6
:101510000101C161C069002200F001000090114684
:101520001C20FFF71DFABDE808401C20FFF70CBA8D
:1015300008BD0000001002400168CA6842F00102C4
:10154000CA600068016841F0010101600020704735
:1015500070B5044690F83800012817D0012584F8AA
:101560003850022084F839002068826822F077021F
:1015700022F47F4282600868502837D00DDC202892
:1015800059D005DC88B3102841D151E0022070BD4C
:10159000302853D040283AD13FE060282ED0702820
:1015A0000BD0B0F5805F03D0B0F5005F2FD110E015
:1015B0002068816821F0070115E0CB68D1E901219D
:1015C000206800F069FB2168886840F07700886037
:1015D0001DE0CB68D1E90121206800F05DFB2068A7
:1015E000816841F48041816011E01EE0CA68496869
:1015F000206800F063FB5021206806E0CA68496853
:10160000206800F06CFB6021206800F04FFB84F83C
:101610003950002084F8380070BDCA6849682068D5
:1016200000F04CFB40212068EFE700212068ECE748
:1016300010212068E9E720212068E6E730212068B2
:10164000E3E7704770B50446006801694FF0000594
:10165000C943890715D4C168C943890711D4E91E54
:10166000016101202076206880698007204602D031
:10167000FFF7E7FF04E000F098F8204600F096F846
:10168000257620680169C943490717D4C168C94351
:10169000490713D46FF0040101610220207620680D
:1016A000806910F4407F204602D0FFF7CAFF04E0B3
:1016B00000F07BF8204600F079F825762068016973
:1016C000C943090716D4C168C943090712D46FF08A
:1016D00008010161042020762068C0698007204647
:1016E00002D0FFF7AEFF04E000F05FF8204600F004
:1016F0005DF8257620680169C943C90617D4C16819
:10170000C943C90613D46FF0100101610820207687
:101710002068C06910F4407F204602D0FFF791FF97
:1017200004E000F042F8204600F040F825762068FA
:101730000169C943C90708D1C168C943C90704D1B0
:10174000891E0161204600F033F820680169C94311
:10175000090609D4C168C943090605D46FF08001A0
:1017600001612046FFF786FE20680169C9434906EA
:1017700009D4C168C943490605D46FF0400101612D
:10178000204600F01DF820680169C94389060BD482
:10179000C168C943890607D46FF020010161204662
:1017A000BDE87040FFF767BE70BD7047704700002E
:1017B0000249884201D101F0EBB970475000002086
:1017C0007047704790F83900704738B50446006894
:1017D000016811F0010FC16801F4807107D031B1C7
:1017E000016841680091E16B41F00101E16301682A
:1017F000C1F34002416901F001013AB131B102681F
:1018000042680092E26B42F00402E2630268C2F3B3
:1018100080023AB131B1026842680092E26B42F054
:101820000202E2630268C2F3C0023AB131B1016858
:1018300041680091E16B41F00801E1630168C06813
:10184000C1F3401100F0200019B110B1204600F0A2
:1018500059FA21680868C968C0F3C01001F0800116
:1018600018B111B1204600F011FB21680868CA6860
:10187000C0F3801002F04002012590B18AB1CA681D
:10188000204622F04002CA6094F83910322911D063
:1018900001684A6922F001024A6180F8395000F07B
:1018A000D3F8E06B002804D084F839502046FFF7C5
:1018B00088FF38BD222180F83910F0E770B50400A8
:1018C00004D094F83900002510B106E0012070BD65
:1018D00084F83850204600F021F8022084F83900BE
:1018E0002068C16821F40051C160204600F05EFA12
:1018F0002068016921F4904101612068416921F06B
:101900002A0141612068C16841F40051C160E5636A
:10191000012084F83900002070BD000010B5006877
:10192000154986B0884225D11448816941F4804127
:1019300081618069124C00F4804004904FF4007083
:101940000090022001900320039069462046FEF794
:10195000CDFE00212015CDE9000102916946204607
:10196000FEF7C4FE002211462520FEF7F9FF2520D0
:10197000FEF7EAFF06B010BD00380140001002403B
:101980000008014090F83930012B01D0122B2CD1E6
:1019900039B332B390F83830012B26D0012380F8C8
:1019A000383081628285C2850021C16390F8392078
:1019B000122A18D05FF0220280F8392080F83810FF
:1019C0000168CA6842F48072CA6001684A6942F0DC
:1019D00001024A610068C16841F02001C160002035
:1019E0007047012070473222E6E70220704700006E
:1019F00030B50068114988420CD1114841880A0469
:101A000008D402464C0412784FF0000306D5462A4B
:101A100001D0438030BD41F400410DE0452A09D09A
:101A2000C1F30D04074D491C89B22A554180312963
:101A3000EFD830BD41F48041418030BD00380140D5
:101A4000180000208C0000207047000070B5254869
:101A500086B0816941F010018161816901F0100156
:101A60000491816941F020018161816901F02001C7
:101A70000491816941F008018161816901F00801E7
:101A80000491816941F0040181618069012400F0C1
:101A9000040004904FF40050CDE90004032569468A
:101AA00003951148FEF722FE4FF47C40CDE9000477
:101AB0000E4E694603953046FEF718FE2002CDE92A
:101AC0000004694603950A48FEF710FE28020090BC
:101AD0000020CDE9010469463046FEF707FE06B056
:101AE00070BD00000010024000100140000C0140D9
:101AF0000008014010B50F4886B04FF080410160EA
:101B000040F2CF210024C0E9011440F2CF71C0E9B6
:101B10000314FFF7D9FC4FF4805000906946054844
:101B2000FFF716FD049404A902480594FFF7A4FCEE
:101B300006B010BD500000200848074901604FF46E
:101B4000E1314160002181600C22C160C0E90412D2
:101B50008161C161FFF7B2BE00380140C0000020C2
:101B60000907090E002806DA00F00F0000F1E02056
:101B700080F8141D704700F1E02080F800147047D1
:101B800010B5FEF797FEBDE81040FFF76FBC30B50B
:101B90008FB0012000240090CDE90104022500044B
:101BA000CDE907504FF4E01009906846FFF7D8F8E8
:101BB0000520CDE90A056802CDE90C4002210AA8FA
:101BC0000E94FEF7FFFEFFF741F84FF47A71B0FB79
:101BD000F1F0FFF737FC0420FFF727FC0FB030BD12
:101BE0000D48016841F00101016041680B4A114054
:101BF000416001680A4A11400160016821F48021B6
:101C00000160416821F4FE0141604FF41F018160D1
:101C10000449C00308607047001002400000FFF84C
:101C2000FFFFF6FE08ED00E00148FFF70BBD0000E6
:101C300050000020F0B50268144B154C154D4FF0C4
:101C40008047984205D0B84203D0A04201D0A842B4
:101C500003D122F070064A683243984205D0B84258
:101C600003D0A04201D0A84203D122F44074CA6834
:101C7000224302608A68C2620A688262984201D185
:101C80000969016301214161F0BD0000002C0140A0
:101C9000000400400008004010B5846842EA0322B6
:101CA00024F47F440A432243826010BD826822F0FC
:101CB00070020A4342F007018160704710B5036A61
:101CC000046A24F001040462846924F0F00444EA04
:101CD000021423F00A020A438461026210BD10B5A7
:101CE000036A23F0100303628369046A23F47043D8
:101CF00043EA023224F0A00343EA01118261016247
:101D000010BD000010B590F83910222903D03229F7
:101D100001D0022010BD8168B1F5805F11D001694A
:101D2000002901681FD0496801F07F03816A4A1CBD
:101D300082620B70C18D491E0904090CC18518D03F
:101D400030E00269816A002A0268526805D0D2B286
:101D50000A80816A491C8162ECE7C2F308020A80AA
:101D6000816A891CF7E74A68816A4B1C83620A70A2
:101D7000E0E70168CA6822F02002CA6090F83910D2
:101D8000322911D00168CA6822F48072CA600168E1
:101D90004A6922F001024A615FF0010180F83910BE
:101DA000FFF726FE002010BD1221F7E72DE9F041D4
:101DB000044600680169E26821F440511143016161
:101DC0002169A0680843616908432168CA6841F233
:101DD0000C639A430243CA6020684169A26921F4F6
:101DE0004071114341612849206864254FF0320851
:101DF000884218D1FEF75AFF00EBC00101EB00103A
:101E000061688900B0FBF1F0B0FBF5F6FEF74EFF1C
:101E100000EBC00101EB001061688900B0FBF1F735
:101E2000FEF744FF17E0FEF72BFF00EBC00101EBCC
:101E3000001061688900B0FBF1F0B0FBF5F6FEF729
:101E40001FFF00EBC00101EB001061688900B0FBCF
:101E5000F1F7FEF715FF00EBC00101EB0010616820
:101E60008900B0FBF1F0B0FBF5F06FF018014843CA
:101E700007EB800108EB0110B0FBF5F0216866F379
:101E80001F108860BDE8F0810038014090F83910DB
:101E9000122903D0322901D0022070478168B1F5A0
:101EA000805F016A0BD04A1C0262026809785160A7
:101EB000C18C491E0904090CC1840ED017E00988A1
:101EC0000268C1F30801516001690029016A02D06A
:101ED000491C0162ECE7891CFBE70168CA6822F033
:101EE0008002CA600068C16841F04001C160002002
:101EF0007047000070B500240C4D0D48FFF765FCDD
:101F000002E0641CAC4204D80948FFF75BFC0128DE
:101F1000F7D1002402E0641CAC4206D80122054936
:101F20000348FFF72FFD0028F5D170BDFFFF01002A
:101F3000C0000020180000200FB4054B10B503A905
:101F4000044A029800F0EEF810BC5DF814FB0000A3
:101F5000052900081C0000200FB4084B10B504A987
:101F600002AA039800F0DEF8044602A9002000F05F
:101F700070FC204610BC5DF814FB000053280008DC
:101F800002E008C8121F08C1002AFAD17047704742
:101F9000002001E001C1121F002AFBD170470000A0
:101FA0002DE9FF5F82B00021DDE90430020DDDF88C
:101FB00040B0034318D044F61050A2F2FF3242431F
:101FC0001514119801281FD0A5EB0B00401C5FEAE7
:101FD000000A4FF000064E4FDFF83891B0465046E9
:101FE00015D5CAF1000413E0119801244AA3012871
:101FF00001D16FEA0B010298119AC0E90031C0E9E2
:10200000024206B0BDE8F09FCBF10000DFE70446D6
:102010000021404A491842EB0450CDE9001012E07B
:10202000E00707D032463B4640464946FEF7B5FA40
:102030008046894632463B4610461946FEF7ADFAC1
:1020400006460F466410002CEAD1DDE90401DDE903
:102050000023BAF1000F06DAFEF79FFA42464B461C
:10206000FEF79BFA05E0FEF714F942464B46FEF7F1
:1020700010F904460E460022284BFEF7B1F903D8AA
:102080004FF0FF30014607E00022254B2046314645
:10209000FEF758F8FEF7F3FA102409E0002C0ADBEB
:1020A0000A220023FEF7CAF9039B30321A55641E38
:1020B00050EA0102F2D1641C039AC4F111031444E2
:1020C000119A012A03D0012208430DD10AE00843E6
:1020D00004D000204FF0110B119072E7A3EB0B0519
:1020E0006D1E0DE05B4504DD4FF0000205F10105BA
:1020F00004E003DA4FF00002A5F10105002AECD05C
:1021000002981199C0E90231C0E9004579E7000061
:10211000000014400000F03F300000000000F043D9
:102120000000E03F2DE9FF4F95B09B4689460646EB
:1021300000250FE2252877D100242746F84A0121FF
:10214000059400E0044316F8013F203B01FA03F038
:102150001042F7D130782A2811D06FF02F03307851
:10216000A0F13002092A16D8059A44F0020402EBC5
:10217000820203EB42021044761C0590EFE759F807
:10218000042B0592002A03DA504244F400540590CF
:1021900044F00204761C30782E2816D116F8010F70
:1021A00044F004042A280DD06FF02F023078A0F1FB
:1021B0003003092B09D807EB870302EB4303C71849
:1021C000761CF3E759F8047B761C30786C280FD026
:1021D00006DC4C2817D068280DD06A2814D104E0FA
:1021E000742810D07A280FD10DE044F400140AE0CE
:1021F00044F4801401E044F440147278824202D125
:1022000004F58014761C761C307866280BD013DC1D
:10221000582877D009DC002875D04528F6D0462804
:10222000F4D047281AD19DE118E0632835D06428FE
:1022300079D0652812D195E1702873D008DC672821
:10224000F1D069286FD06E280DD06F2806D1B5E087
:1022500073282CD0752875D0782874D05A461799D1
:1022600090476D1C75E1C4F30250022809D0032881
:102270000DD0D9F8001004280DD00D6009F1040923
:1022800067E1D9F80010EA17C1E90052F6E7D9F87A
:1022900000100D80F2E70D70F0E719F8041B8DF8BF
:1022A000001000208DF80100EA46012003E059F8F3
:1022B00004AB4FF0FF3061074FF0000102D40DE096
:1022C00008F101018846B9420FDA8045F8DB1AF8B7
:1022D00008100029F4D108E008F101018846814284
:1022E000FADB1AF808100029F6D105985B46A0EB36
:1022F000080721463846179A00F094FA284400EB64
:10230000080507E04DE029E10DE01AF8010B5A46F7
:1023100017999047B8F10108F7D25B462146384635
:10232000179A13E142E00A220092C4F302524FF0DE
:10233000000A022A08D059F804CB032A4FEAEC71AC
:102340000AD00DE029E02AE009F1070121F0070297
:10235000F2E802C1914609E00FFA8CFC4FEAEC71F9
:10236000042A03D14FFA8CFC4FEAEC71002907DAFA
:102370000A460021DCF1000C61EB02012D2202E093
:10238000220504D52B228DF80420012203E0E20768
:1023900001D02022F7E7904659E00A2102E01022FE
:1023A0000DE010214FF0000A00910BE010224FF0D9
:1023B000000A44F004040827009203E008224FF0CA
:1023C000000A0092C4F30252022A05D059F804CB45
:1023D0000021032A08D009E009F1070121F00702D2
:1023E000F2E802C1914605E01FFA8CFC042A01D1F3
:1023F0000CF0FF0C4FF00008220728D5702806D0FB
:10240000009B83F0100353EA0A0305D00EE040223C
:102410008DF80420012208E05CEA010206D0302297
:102420008DF804208DF8050002229046009B83F071
:10243000080353EA0A030AD15CEA010201D16207E8
:1024400005D530228DF804204FF001087F1E582852
:1024500004D034A003900EA802900DE036A0F9E756
:1024600053466046009AFDF7E9FF84460398825C74
:102470000298401E029002705CEA0100F0D10298BE
:1024800006A9081A00F1200A600702D524F4803456
:1024900000E00127574502DDA7EB0A0000E000201D
:1024A00000EB0A01009005984144401A0590E003B2
:1024B00006D45B462146179A059800F0B3F9054407
:1024C000002706E001A85A46C05D179990476D1C89
:1024D0007F1C4745F6DBE0030CD55B462146179A87
:1024E000059800F09FF9054404E030205A461799FA
:1024F00090476D1C0099481E00900029F5DC08E00B
:10250000029802995A460078491C029117999047FF
:102510006D1CBAF10001AAF1010AF1DC65E10000CD
:1025200009280100303132333435363738396162A9
:10253000636465660000000030313233343536376D
:1025400038394142434445460000000000F058F944
:102550000544761C307800287FF4ECAD19B028468D
:10256000BDE8F08F620700D4062709F1070222F0C8
:10257000070CFCE80223E14603F000485FEA080C80
:1025800002D00FF2702C0DE05FEA045C02D50FF26E
:10259000682C07E05FEAC47C02D00FF2602C01E0F7
:1025A000AFF2700C4FF0FF3823F00043CDF850C06D
:1025B00065280CD006DC452809D046281DD04728C0
:1025C0003DD13DE0662818D067287ED138E0002153
:1025D000112F01DB112000E0781CCDE9000106A9D4
:1025E0000EA8FFF7DDFCDDE90F010E9A0391002133
:1025F000009207F1010A04914DE04FF0004000976E
:10260000CDE9011006A90EA8FFF7CAFCDDE90F020B
:1026100003920E9B11990022DDF80CA00093049206
:1026200011B9791C00EB010AB7EB0A0004D4C0F120
:10263000FF3007F1010A0490AAEB0700019044E083
:10264000012F00DA01270021112F01DD112000E008
:102650003846CDE9000106A90EA8FFF7A1FCDDE987
:102660000F010E9A0391002104910092BA462107AE
:102670000CD40399514500DA8A46BAF1010F05DD01
:10268000009AAAF10101515C302908D0B84202DA5F
:1026900010F1040F06DA0121CDE9011015E0AAF1CD
:1026A0000101E9E7002805DC049901440491AAEB43
:1026B000000102E0411C514500DD8A460499401AA0
:1026C000401C01904FF000400290200704D4019874
:1026D000504501DBCDF8048000208DF84F000298B2
:1026E0000DF14F07B0F1004F25D02B200E9002982E
:1026F0004FF0020800280CDA404202902D200E9084
:1027000007E00A210298FDF783FE3031029007F8B6
:10271000011DB8F10001A8F10108F2DC02980028BF
:10272000EFD1791E0E980870307800F0200040F04C
:10273000450007F8020D12A8C01B00F10708149805
:10274000007800B1012000EB0A01019801EBE07173
:1027500005984144401A401E0590E00306D45B46AC
:102760002146179A059800F05DF805441498007802
:1027700018B15A46179990476D1CE00324D55B4663
:102780002146179A059800F04DF805441CE004987E
:10279000002807DBDDE90301884203DD0098405C87
:1027A000179901E0179930205A469047049805F18F
:1027B0000105401C04900198401E019004D12E2078
:1027C0005A46179990476D1CBAF10001AAF1010A07
:1027D000DDDC05E017F8010B5A46179990476D1C90
:1027E000B8F10001A8F10108F4DC5B462146179A14
:1027F0000598ABE62D0000002B0000002000000033
:102800002DE9F041044600251E461746880404D4ED
:1028100005E039462020B0476D1C641EF9D52846D6
:10282000BDE8F0812DE9F041044600251E469046A2
:10283000C80301D5302700E02027880404D505E02F
:1028400041463846B0476D1C641EF9D52846BDE8A0
:10285000F0810A68531C0B6010707047014600201D
:102860003039092900D80846704700004FF0E021B0
:102870000A6922F004020A610649C00800EB40021E
:102880000870C2EBC0104FF6FF7202EAC000488029
:10289000704700002A0000200849498848434FF04B
:1028A000E02148610020886101220A610A69D3079A
:1028B00001D0D203FAD50861886170472A00002050
:1028C0000849097848434FF0E021486100208861B9
:1028D00001220A610A69D30701D0D203FAD508613F
:1028E000886170472A00002010B5FDF752FD0246AE
:1028F0000B46BDE8104000200149FDF7CABC0000AE
:10290000389CDC4004490A685206FCD5024AC1B230
:10291000121D1160704700000038014008B5FDF736
:10292000D1FFFFF734F9FFF791F8FFF7E3F8FFF76E
:1029300003F94820FFF79AFF01221F491F48FFF7BC
:1029400021F81F48FEF7F8FD1EA220A122A000F0EA
:10295000EBFA264C264E002594F83800012803D1C6
:1029600084F8385000F0FEF8607860B1012802D099
:10297000022803D007E000F083F801E000F068F8D7
:10298000206BFFF79DFF307C0128E5D119A000F0F6
:1029900077FB0520FFF780FFE06B0090D4E90A2366
:1029A000617818A0FFF7C8FA35740A20FFF774FFA2
:1029B00018480580D0E7000018000020C000002063
:1029C000500000203831323300000000616263643F
:1029D0003132333400000000776972656C657373BF
:1029E0005F6D6F746F725F76332E310000010020CF
:1029F000E02B002041542B43495053454E443D3079
:102A00002C3138002531642C25322E32662C2531AC
:102A1000306400001A0000200C4B10B5587803F801
:102A2000180B93E81700103B83E81700083B00F0F1
:102A300099F818785870022801D0022000E001208F
:102A40005870083317CB83E8170010BD0001002031
:102A500010B50949094C022048706078401EC0B288
:102A600000F048F86078401E10F0FF00607001D15F
:102A70000420607010BD0000000100202000002034
:102A800010B50849084C01204870207800F032F851
:102A90002078401CC0B22070042801D10020207092
:102AA00010BD0000000100202000002010B5054CE2
:102AB000054A064BD4E90601FDF7E5FBC4E906012A
:102AC00010BD0000000100207B14AE47E17A843F76
:102AD00010B5054C054A064BD4E90601FDF732FB5B
:102AE000C4E9060110BD0000000100207B14AE47C0
:102AF000E17A843F0123184A002130B1012809D02E
:102B0000022810D003281DD114E0C2F8B031C2F859
:102B1000B41103E0C2F8B011C2F8B431C2F8B81170
:102B2000C2F8BC110EE0C2F8B011C2F8B411C2F87C
:102B3000B831F5E7C2F8B011C2F8B411C2F8B81153
:102B4000C2F8BC31054A064BD06B401CD06398429A
:102B500000D3D163704700000080214200010020B3
:102B600000C2EB0B0849094A00204870C2F8B001C6
:102B7000C2F8B401C2F8B801C2F8BC010863C1E9E7
:102B80000A00C1E9060070470001002000802142D0
:102B90002DE9F84F6421002000F072F9DFF8508130
:102BA000D8F82011D8F8240111F0FF0F514DC0B210
:102BB0004FF0010700D018B9687808B185F838706F
:102BC0004D494E4C4FF0320908884FF00006020480
:102BD00063D54B494B4A08714E7190782B285AD1D6
:102BE000107B412802D0422810D054E0517B0220B3
:102BF000412902D042294ED103E02070A4F812905E
:102C000049E0217C0029F8D12774F6E7507B303861
:102C1000062840D2DFE800F003303235383B907BA5
:102C2000FFF71CFE6870107CFFF718FE0346D07B90
:102C3000FFF714FE00EB800003EB40000090D07C17
:102C4000FFF70CFE0346907CFFF708FE00EB8000C8
:102C500003EB4000FDF78CFB00222B4BFDF719FB2B
:102C600082468B460098FDF783FB52465B46FDF794
:102C700069FAC5E906010EE0EE630CE0FFF772FFAA
:102C800009E0FFF725FF06E0FFF710FF03E0687893
:102C900008B1FFF7C1FE18480680608A401E000494
:102CA000000C608204D12770FFF75CFFA4F812903B
:102CB000687840B1D5E9060100F0FAF82863FFF71B
:102CC00013FEC5E90A01207802280BD000F0AEF906
:102CD00068780028404608D0C0F8A871BDE8F84FD1
:102CE00000F004B900F0C4F9F2E7C0F8A861F5E714
:102CF00000802142000100201A000020E02B00206B
:102D0000200000208C0000200000594070B5134ABC
:102D100013181B7E93B1124B53F820308B421AD9F3
:102D20000F4B083B53F82030B1FBF3F102EB80036B
:102D3000186930F811200020044608E0116888471F
:102D4000012070BD1D690E18401C25F816409042E8
:102D5000F8DB002070BD022070BD000030000020B4
:102D6000C030000870B504460B480C4E002150F8E6
:102D7000240006EB84054200286900F091F806481B
:102D80000021103050F82420A86800F089F80120B4
:102D90003119087670BD0000B03000083000002006
:102DA0002DE9F041204E0446002530190F46007EE3
:102DB00010B93168204688474FF0FF327FB31B4B74
:102DC00053F82410B7FBF1F0B7FBF1FC01FB1C71C9
:102DD00001B1401C1549083951F82410491E21D46D
:102DE00006EB8406D6F8107037F811C0BCF1000F5E
:102DF00005D00025854213D1002285B208E06D1C64
:102E0000F8E700BF376901EB020C521C27F81C5091
:102E10008242F7D353F824004843BDE8F08101E033
:102E2000491EE1D51046F8E730000020B830000810
:102E300010B50B4B0B4C002253F82030114604EB1D
:102E4000800005E0046934F8114004B1521C491CAB
:102E50008B42F7D864204243B2FBF3F0C0B210BDFE
:102E6000B030000830000020002906D0034A02EBF1
:102E700080029268891AFFF749BF7047300000202E
:102E800010B50446FFF78CFF411C05D0034901EB48
:102E900084018968084410BD002010BD3000002066
:102EA00002E000BF00F8011B521EFBD27047000079
:102EB00070B504460D460022094BFDF791FA01D288
:102EC000074D002422462B4600200649FDF7E1F974
:102ED0000022054BFDF736F9BDE87040FDF766BAF4
:102EE00000C05840389CDC400000F03F30B50C4A30
:102EF0001088401C80B21080642810D9901F0124D3
:102F00008378084D0021012B01D023B106E0C5F8DC
:102F1000B441817002E0C5F8B4118470118030BDF5
:102F200026000020000022422DE9F0470F4605460A
:102F3000914664210020FFF7A3FF274C012680461D
:102F40002670C4E901570025A5810520E081234FA3
:102F5000257432206082C7F8A05141F2883007F50D
:102F6000D077FFF799FC3E601DA000F089F864203F
:102F7000FFF792FC1CA000F083F86420FFF78CFCA4
:102F800017A000F07DF86420FFF786FCD4E9012348
:102F900018A14046FEF7E0FF404600F071F84FF4FC
:102FA0007A70FFF779FC19A000F06AF86420FFF747
:102FB00073FC4A4618A14046FEF7CEFF404600F09B
:102FC0005FF86420FFF768FC25704146BDE8F047D4
:102FD0000020FFF749BF0000E02B00200000214245
:102FE00041542B525354000041542B43574D4F44EE
:102FF000453D320041542B43575341503D222573E8
:10300000222C222573222C312C34000041542B43D6
:1030100049504D55583D310041542B43495053457B
:10302000525645523D312C257300000030B50D48F5
:103030008189491C89B28181C289914210D90A498A
:1030400001240A4D4B780022012B01D023B106E068
:10305000C5F8AC414A7002E0C5F8AC214C708281E1
:1030600030BD0000E02B00204C00002000802142F9
:1030700002490120C1F8AC017047000000802142E4
:1030800010B5044A00211180014603A0FEF754FF49
:10309000012010BD1A00002025730D0A0000000059
:1030A00000000000010203040102030406070809EE
:1030B000400100000100000020000000200000008E
:1030C0000028000020000000E83000080000002078
:1030D00050000000801F0008383100085000002018
:1030E000A82F0000901F00080000000000A24A0462
:1030F00000000000000000000102030406070809A8
:1031000000000000000000000004010100000000B9
:103110000000000000000000652D0008312E0008AE
:103120006001002000000068602900202000006885
:08313000000000000101010094
:04000005080000ED02
:00000001FF
